:107E0000112484B714BE81FFE4D082E08093C000C7
:107E100088E18093C10096E09093C20090E1909336
:107E2000C400809360008EE080936000549AC0E0AC
:107E3000D0E04C9AA9D0813481F4A6D0182FB0D0CC
:107E4000123819F484E099D095C0113819F484E0FF
:107E500094D090C083E091D08DC0823419F484E135
:107E6000ABD088C0853419F485E0A6D083C08535B1
:107E700049F48AD0C82F88D0D0E0D82BCC0FDD1F92
:107E80008FD078C0863529F484E096D080E075D014
:107E900071C0843609F042C077D076D0F82E74D005
:107EA000C11580E7D80738F483E0FE0187BFE89565
:107EB00000E011E002C000E011E066D0F80181931B
:107EC0008F01FE12FACFC115F0E7DF0720F083E043
:107ED000FE0187BFE89564D007B600FCFDCFFE0128
:107EE000A0E0B1E08C9111962C91119790E0922B2B
:107EF00021E00C0127BFE895112432961296A03894
:107F000081E0B80779F785E0FE0187BFE89507B6FD
:107F100000FCFDCF81E187BFE8952CC08437A9F430
:107F200033D032D0182F30D03BD0012FFE017F014B
:107F30008FEFE81AF80A849120D00150F701B9F7C1
:107F400021961150C10FD11D15C0853741F428D09D
:107F50008EE113D085E911D08FE00FD00BC08135B1
:107F600041F488E18093600088E08093600018D03D
:107F700001C016D080E101D05CCF9091C00095FF88
:107F8000FCCF8093C60008958091C00087FFFCCF8E
:107F90008091C00084FD01C0A8958091C60008951D
:107FA000F3DF803239F088E18093600088E08093CD
:107FB0006000FFCF84E1E1CFCF93C82FE5DFC15050
:107FC000E9F7CF91EDCFE0E6F0E098E19083808390
:107FD0000895E0E6F0E088E180831082EE27FF2735
:027FE000099402
:027FFE00040479
:0400000300007E007B
:00000001FF
